:020000040800F2
:1000000000500020AD1A0008F71A0008F91A00087D
:10001000FB1A0008FD1A0008FF1A00080000000083
:10002000000000000000000000000000011B0008AC
:10003000031B000800000000051B0008071B000848
:10004000F51A0008F51A0008F51A0008F51A000854
:10005000F51A0008F51A0008F51A0008F51A000844
:10006000F51A0008F51A0008F51A0008F51A000834
:10007000F51A0008F51A0008F51A0008F51A000824
:10008000F51A0008F51A0008F51A0008F51A000814
:10009000F51A0008F51A0008F51A0008F51A000804
:1000A000F51A0008F51A0008F51A0008F51A0008F4
:1000B000F51A0008F51A0008F51A0008F51A0008E4
:1000C000F51A0008F51A0008F51A0008F51A0008D4
:1000D000F51A0008F51A0008F51A0008F51A0008C4
:1000E000F51A0008F51A0008F51A000800000000CB
:1000F0000000000000000000000000000000000000
:0C01000000000000000000005FF808F1A3
:10010C0010B5054C237833B9044B13B10448AFF345
:10011C0000800123237010BD680000200000000047
:10012C000C01000808B5034B1BB103490348AFF39E
:10013C00008008BD000000006C0000200C010008CD
:10014C0080F0004002E000BF81F0004142001FBF80
:10015C005FEA410392EA030F7FEA226C7FEA236C89
:10016C006AD04FEA1262D2EB1363C1BFD21841407E
:10017C0048404140B8BF5B42192B88BF704710F014
:10018C00004F40F4000020F07F4018BF404211F0B7
:10019C00004F41F4000121F07F4118BF494292EA1F
:1001AC00030F3FD0A2F1010241FA03FC10EB0C004B
:1001BC00C3F1200301FA03F100F0004302D54942D8
:1001CC0060EB4000B0F5000F13D3B0F1807F06D385
:1001DC0040084FEA310102F10102FE2A51D2B1F17D
:1001EC00004F40EBC25008BF20F0010040EA030072
:1001FC007047490040EB0000013A28BFB0F5000FF2
:10020C00EDD2B0FA80FCACF1080CB2EB0C0200FAA7
:10021C000CF0AABF00EBC25052421843BCBFD040F6
:10022C001843704792F0000F81F4000106BF80F470
:10023C0000000132013BB5E74FEA41037FEA226C33
:10024C0018BF7FEA236C21D092EA030F04D092F0FE
:10025C00000F08BF0846704790EA010F1CBF002032
:10026C00704712F07F4F04D1400028BF40F000408F
:10027C00704712F100723CBF00F50000704700F0AF
:10028C00004343F0FE4040F4000070477FEA2262D6
:10029C0016BF08467FEA23630146420206BF5FEAA7
:1002AC00412390EA010F40F4800070474FF00003A7
:1002BC0004E000BF10F0004348BF40425FEA000C6E
:1002CC0008BF704743F0964301464FF000001CE016
:1002DC0050EA010208BF70474FF000030AE000BF6C
:1002EC0050EA010208BF704711F0004302D54042AA
:1002FC0061EB41015FEA010C02BF8446014600201C
:10030C0043F0B64308BFA3F18053A3F50003BCFA36
:10031C008CF2083AA3EBC25310DB01FA02FC6344E3
:10032C0000FA02FCC2F12002BCF1004F20FA02F2EA
:10033C0043EB020008BF20F00100704702F12002DD
:10034C0001FA02FCC2F1200250EA4C0021FA02F23E
:10035C0043EB020008BF20EADC7070474FF0FF0C43
:10036C001CEAD0521EBF1CEAD15392EA0C0F93EA3E
:10037C000C0F6FD01A4480EA010C400218BF5FEAE0
:10038C0041211ED04FF0006343EA501043EA511153
:10039C00A0FB01310CF00040B1F5000F3EBF49004D
:1003AC0041EAD3715B0040EA010062F17F02FD2A51
:1003BC001DD8B3F1004F40EBC25008BF20F0010034
:1003CC00704790F0000F0CF0004C08BF49024CEA4B
:1003DC00502040EA51207F3AC2BFD2F1FF0340EADD
:1003EC00C250704740F400004FF00003013A5DDC4E
:1003FC0012F1190FDCBF00F000407047C2F100028F
:10040C00410021FA02F1C2F1200200FA02FC5FEA7B
:10041C00310040F1000053EA4C0308BF20EADC70C5
:10042C00704792F0000F00F0004C02BF400010F437
:10043C00000F013AF9D040EA0C0093F0000F01F0E4
:10044C00004C02BF490011F4000F013BF9D041EA06
:10045C000C018FE70CEAD15392EA0C0F18BF93EA08
:10046C000C0F0AD030F0004C18BF31F0004CD8D132
:10047C0080EA010000F00040704790F0000F17BFB9
:10048C0090F0004F084691F0000F91F0004F14D0FF
:10049C0092EA0C0F01D142020FD193EA0C0F03D157
:1004AC004B0218BF084608D180EA010000F000405A
:1004BC0040F0FE4040F40000704740F0FE4040F435
:1004CC00400070474FF0FF0C1CEAD0521EBF1CEAD4
:1004DC00D15392EA0C0F93EA0C0F69D0A2EB0302F2
:1004EC0080EA010C49024FEA402037D04FF080538C
:1004FC0043EA111143EA10130CF000408B4238BF51
:10050C005B0042F17D024FF4000C8B4224BF5B1A5E
:10051C0040EA0C00B3EB510F24BFA3EB510340EAAC
:10052C005C00B3EB910F24BFA3EB910340EA9C005A
:10053C00B3EBD10F24BFA3EBD10340EADC001B01CA
:10054C0018BF5FEA1C1CE0D1FD2A3FF650AF8B426E
:10055C0040EBC25008BF20F0010070470CF0004C7B
:10056C004CEA50207F32C2BFD2F1FF0340EAC250A6
:10057C00704740F400004FF00003013A37E792F067
:10058C00000F00F0004C02BF400010F4000F013AC5
:10059C00F9D040EA0C0093F0000F01F0004C02BFC0
:1005AC00490011F4000F013BF9D041EA0C0195E729
:1005BC000CEAD15392EA0C0F08D142027FF47DAFC2
:1005CC0093EA0C0F7FF470AF084676E793EA0C0FB2
:1005DC0004D14B023FF44CAF08466EE730F0004CB0
:1005EC0018BF31F0004CCAD130F000427FF45CAF40
:1005FC0031F000437FF43CAF5FE700BF42000ED206
:10060C00B2F1FE4F0BD34FF09E03B3EB126209D441
:10061C004FEA002343F0004323FA02F070474FF0F7
:10062C000000704712F1610F01D1420202D14FF06C
:10063C00FF3070474FF00000704700BF10B44268A5
:10064C0022F4702222F480720B6891F804C043EA01
:10065C000C231343436083680A4A1A40CB688C68A6
:10066C00234391F805C043EA4C0313438360C36AE8
:10067C0023F470030A7C013AD2B243EA0253C362F8
:10068C0010BC7047FDF7F1FF21B1836843F0010303
:10069C0083607047836823F001038360704783682D
:1006AC0043F0080383607047836813F0080F01D090
:1006BC000120704700207047836843F00403836077
:1006CC007047836813F0040F01D00120704700209D
:1006DC00704721B1836843F4A0038360704783683B
:1006EC0023F4A0038360704710B509291DD9C46891
:1006FC00A1F10A0C0CEB4C0C4FF0070E0EFA0CFE91
:10070C0024EA0E0403FA0CF32343C360062A1BD815
:10071C00436B013A02EB82021F24944023EA040348
:10072C0001FA02F21A43426310BD046901EB410E57
:10073C004FF0070C0CFA0EFC24EA0C0C03FA0EF327
:10074C004CEA03030361E1E70C2A0CD8036B073A6C
:10075C0002EB82021F24944023EA040301FA02F202
:10076C001A430263E0E7C36A0D3A02EB82021F24CC
:10077C00944023EA040301FA02F21A43C262D3E75B
:10078C0021B1836843F4801383607047836823F43A
:10079C00801383607047C06C80B270470368194245
:1007AC0001D0012070470020704730B5CB7803F0A2
:1007BC000F02964613F0100F03D091F802E04EEAA8
:1007CC00020E0B7803B30468002301E0426101338D
:1007DC00072B18D801229A40B1F800C032EA0C0558
:1007EC00F5D14FEA830C0F2505FA0CF524EA050424
:1007FC000EFA0CFC4CEA0404CD78282DE6D0482DDA
:10080C00E5D10261E3E704600B88FF2B25D944682E
:10081C00002303E0CD78482D1CD00133072B1BD8C7
:10082C0003F1080C012202FA0CF2B1F800C032EA12
:10083C000C05F2D14FEA830C0F2505FA0CF524EACE
:10084C0005040EFA0CFC4CEA0404CD78282DE1D1F9
:10085C004261DFE70261E0E7446030BD8368194222
:10086C0001D00120704700207047016170470AB128
:10087C00016170474161704721B1054A9369184382
:10088C0090617047024A936923EA000090617047B7
:10089C000010024021B1054AD3691843D06170475A
:1008AC00024AD36923EA0000D0617047001002406D
:1008BC0000B5B0F820E01FFA8EFE2EF0010E1FFAE4
:1008CC008EFEA0F820E0B0F818C01FFA8CFCB0F82F
:1008DC0020E01FFA8EFE2CF0F30C1B019BB213438D
:1008EC004CEA030C124A904217D0124B984214D087
:1008FC00B0F1804F11D0A3F5983398420DD003F589
:10090C008063984209D003F58063984205D02EF09D
:10091C000A03194341F0010104E02EF002031943CC
:10092C0041F00101A0F818C001845DF804FB00BF80
:10093C00002C01400034014010B5B0F820C01FFA63
:10094C008CFC2CF0100C1FFA8CFCA0F820C0B0F81A
:10095C0018E0B0F820C01FFA8CFC0C01A4B22EF4E5
:10096C00407E4FEA0E5E4FEA1E5E1B039BB243EACB
:10097C000E03120292B21A43134B984219D003F58C
:10098C000063984215D0B0F1804F12D0A3F5983384
:10099C0098420ED003F5806398420AD003F5806329
:1009AC00984206D02CF0A00C4CEA010C4CF0100C28
:1009BC0005E02CF0200C4CEA040C4CF0100C0283DB
:1009CC00A0F820C010BD00BF002C014030B50C4673
:1009DC00B0F820C01FFA8CFC2CF4807C1FFA8CFC25
:1009EC00A0F820C0B0F81CE01FFA8EFE018C89B272
:1009FC002502ADB22EF0F30E1B019BB213434EEA4F
:100A0C000303124A904219D002F50062904215D0AD
:100A1C00B0F1804F12D0A2F5983290420ED002F570
:100A2C00806290420AD002F58062904206D021F496
:100A3C00206C4CEA040141F4807104E021F4007153
:100A4C00294341F480718383018430BD002C014023
:100A5C0010B5B0F820C01FFA8CFC2CF4805C1FFA87
:100A6C008CFCA0F820C0B0F81CE0B0F820C01FFA35
:100A7C008CFC0C03A4B22EF4407E4FEA0E5E4FEABF
:100A8C001E5E120292B242EA0E021B039BB2134389
:100A9C00144A90421DD002F50062904219D0B0F178
:100AAC00804F16D0A2F59832904212D002F5806297
:100ABC0090420ED002F5806290420AD02CF4007C59
:100ACC004FEA4C4C4FEA5C4C41EA0C0141F480512A
:100ADC0004E02CF40051214341F4805183830184C0
:100AEC0010BD00BF002C014003889BB2214A9042EC
:100AFC0012D002F5006290420ED0B0F1804F0BD0B4
:100B0C00A2F59832904207D002F58062904203D051
:100B1C0002F58062904203D123F070034A8813439C
:100B2C00154A904208D002F58062904204D023F41A
:100B3C0040739BB2CA88134303808B8883850B88D0
:100B4C0003850C4B98420FD003F5006398420BD0F1
:100B5C0003F54063984207D003F58063984203D0B5
:100B6C0003F58063984201D10B7A038601238382BB
:100B7C00704700BF002C01400010004000B5038CF2
:100B8C009BB223F480739BB20384038C9BB2B0F8AA
:100B9C0004E01FFA8EFEB0F81CC01FFA8CFC2CF07F
:100BAC00730C0A884CEA020C23F400730A891202B3
:100BBC0092B21A434B881B029BB21343134A9042C6
:100BCC0003D002F50062904217D123F400634A89E6
:100BDC00120292B2134323F480628B881B029BB2E5
:100BEC0013432EF4405E8A89120192B24EEA020E31
:100BFC00CA89120192B242EA0E0EA0F804E0A0F8E3
:100C0C001CC0CA88828703845DF804FB002C014059
:100C1C004FF6FF73838000230380C38043800372ED
:100C2C00704729B103889BB243F0010303807047DE
:100C3C0003889BB223F001039BB20380704749B138
:100C4C00B0F844306FEA43436FEA53439BB2A0F8C9
:100C5C0044307047B0F84430C3F30E03A0F844306E
:100C6C00704703899BB223F007039BB20381704743
:100C7C0003899BB223F070030B430381704710B5BB
:100C8C000489A4B2B0F818C01FFA8CFCB0F820E0AC
:100C9C001FFA8EFE24F007040C432CF4407C2CF03D
:100CAC00030C4CF4807C4CF0010C2EF0220E1B013A
:100CBC009BB213434EEA030E0481A0F818C0A0F8AF
:100CCC0020E010BD83889BB223F070039BB283801D
:100CDC0083889BB20B438380704703899BB223F0BC
:100CEC0007039BB2038103899BB20B4303817047BB
:100CFC0081847047038B9BB223F00C039BB203835C
:100D0C00038B9BB20B4303837047038B9BB223F47F
:100D1C0040639BB20383038B9BB2090289B20B43E2
:100D2C0003837047F8B505460C464988C9B90226B5
:100D3C00A288012A17D001272388B3B92389284612
:100D4C00FFF7B6FDE1882846FFF7D4FF23893A4622
:100D5C0031462846FFF7F0FDE1882846FFF7D5FF1E
:100D6C00F8BD0026E4E70227E6E723892846FFF7CB
:100D7C00E3FDE1882846FFF7C8FF23893A46314650
:100D8C002846FFF795FDE1882846FFF7B3FFE7E714
:100D9C00838B9BB223F00C039BB28383838B9BB21C
:100DAC000B4383837047838B9BB223F440639BB2CA
:100DBC008383838B9BB2090289B20B438383704775
:100DCC0038B505460C460B886BB1042B15D0082B97
:100DDC001DD00B898A884988FFF73AFEE18828469E
:100DEC00FFF7E1FF38BD0B898A884988FFF760FD62
:100DFC00E1882846FFF77EFFF4E70B898A8849884B
:100E0C00FFF79AFDE1882846FFF77FFFEAE70B8999
:100E1C008A884988FFF7DAFDE1882846FFF7B8FF92
:100E2C00E0E7808E80B27047008F80B27047808C74
:100E3C0080B2704782B00023019300932C4A136850
:100E4C0043F4803313602A4B1B6803F40033009384
:100E5C00019B01330193009B1BB9019BB3F5A06F60
:100E6C00F1D1234B1B6813F4003F06D001230093F0
:100E7C00009B012B04D002B0704700230093F7E7CE
:100E8C001C4B1A6842F010021A601A6822F0030216
:100E9C001A601A6842F002021A60A3F580535A686D
:100EAC005A605A685A605A6842F480625A605A68AA
:100EBC0022F47C125A605A6842F4E8125A601A689A
:100ECC0042F080721A600A4B1B6813F0007FFAD054
:100EDC00074B5A6822F003025A605A6842F0020229
:100EEC005A60034B5B6803F00C03082BF9D1C2E783
:100EFC00001002400020024008B5FFF79BFF08BD20
:100F0C0008B5104B1A6842F001021A6059680E4A73
:100F1C000A405A601A6822F0847222F480321A60F5
:100F2C001A6822F480221A605A6822F4FE025A606F
:100F3C004FF41F029A60FFF7DFFF044B4FF0006283
:100F4C009A6008BD001002400000FFF800ED00E0C0
:100F5C0070B586B001214FF40170FFF78DFC0124B0
:100F6C00ADF8144000268DF8176003238DF8163069
:100F7C0005A91748FFF719FC00968DF804408DF869
:100F8C0005404FF40023029303968DF81040114D49
:100F9C0069462846FFF752FB052322463146284670
:100FAC00FFF7A2FB21462846FFF76EFB2846FFF70A
:100FBC0076FB0848FFF778FB0028FAD10548FFF7C5
:100FCC007BFB0448FFF77DFB0028FAD106B070BD0F
:100FDC00000801400024014010B584B004460121F2
:100FEC000220FFF757FC134890FBF4F00138ADF8E2
:100FFC0008004723ADF804300023ADF80A30ADF8F3
:10100C0006300D4C01A92046FFF76EFD202120462D
:10101C00FFF758FE01212046FFF703FE04F590343C
:10102C0001212046FFF7ACFB01212046FFF751FBC5
:10103C0004B010BD40420F000004004000EBC000A3
:10104C00C0004FF0E023586100229A6105221A611A
:10105C004FF0E0231B6913F4803FF9D04FF0E023ED
:10106C0004221A61704710B504E04FF47A70FFF750
:10107C00E5FF2046441E0028F7D110BD70B588B09E
:10108C0001210920FFF7F8FB01210420FFF702FCE6
:10109C00C023ADF81C3048238DF81F3007A91B481E
:1010AC00FFF783FB4FF6FF73ADF814300024ADF857
:1010BC001040ADF81640ADF812408DF81840144DA4
:1010CC0004A92846FFF710FD0423ADF80430ADF851
:1010DC0006400126ADF80860ADF80A40ADF80C40AA
:1010EC000DEB03012846FFF76BFE23462246032136
:1010FC002846FFF7C4FD21462846FFF7F9FD314687
:10110C002846FFF78EFD08B070BD00BF000C0140F3
:10111C000008004008B50E48FFF789FE0D4A136819
:10112C001060C01A10D000EB80000B4B1A681044F2
:10113C001860002809DB084B1B68B3F57A6F03DDD8
:10114C00054B4FF47A621A6008BD00221A60F2E770
:10115C0000080040880100208401002030B589B0CF
:10116C0001210846FFF796FB01210420FFF784FBC1
:10117C0048238DF81F300223ADF81C3003238DF863
:10118C001E3007A91F48FFF710FB4FF08040FFF7F8
:10119C0068FD0024ADF81640ADF812404FF6FF7311
:1011AC00ADF81430184B1B88ADF810308DF8184082
:1011BC0004A94FF08040FFF797FC0425ADF80450CC
:1011CC000F23ADF80C30ADF80640ADF80A40012401
:1011DC00ADF808400DEB05014FF08040FFF7A2FD84
:1011EC0060214FF08040FFF743FD29464FF08040CF
:1011FC00FFF773FD21464FF08040FFF712FD09B059
:10120C0030BD00BF000801400000002010B584B0C4
:10121C00044600214FF08040FFF703FD01A8FFF7C3
:10122C00F7FC0023ADF80A30ADF806304FF6FF722C
:10123C00ADF80820ADF804408DF80C3001A94FF042
:10124C008040FFF751FC01214FF08040FFF7E9FC93
:10125C00014B1C8004B010BD0000002008B54FF0FD
:10126C008040FFF7E1FD024B93FBF0F008BD00BF9F
:10127C0040420F0008B54FF08040FFF7D5FD42F219
:10128C00107393FBF0F008BD10B54FF08040FFF7E2
:10129C00C8FD642400FB04F44FF08040FFF7C4FD4C
:1012AC0094FBF0F0013010BD08B502464FF480718C
:1012BC000148FFF7DCFA08BD000C014008B50246F6
:1012CC004FF400710148FFF7D2FA08BD000C014041
:1012DC0008B54FF400710248FFF7C0FA08BD00BF13
:1012EC00000C014030B583B001210820FFF7C4FA8F
:1012FC004FF44075ADF8045014238DF807300323D8
:10130C008DF80630054C01A92046FFF74EFA294608
:10131C002046FFF7AAFA03B030BD00BF000C014015
:10132C0008B50120FFF7CAFF0120FFF7BDFF002021
:10133C00FFF7C4FF0020FFF7B7FF08BD08B500207A
:10134C00FFF7BCFF0120FFF7AFFF0120FFF7B6FF4F
:10135C0008BD38B5054600240CE08020204128400B
:10136C00FFF7ACFF0120FFF79FFF0020FFF79CFF6A
:10137C000134E4B2072CF0D938BD10B50120FFF7C9
:10138C009DFF0120FFF790FFFFF7A2FF044600200E
:10139C00FFF78AFF204610BD10B50446FFF7C0FFCB
:1013AC007820FFF7D6FFFFF7E8FF0020FFF7D1FF0B
:1013BC00FFF7E3FF2046FFF7CCFFFFF7DEFFFFF759
:1013CC00BDFF10BD08B5FFF78DFF6420FFF74BFE86
:1013DC00AE20FFF7E1FFD520FFF7DEFF8020FFF7FF
:1013EC00DBFFA820FFF7D8FF3F20FFF7D5FFD32066
:1013FC00FFF7D2FF0020FFF7CFFF4020FFF7CCFF15
:10140C00A120FFF7C9FFC820FFF7C6FFDA20FFF7BE
:10141C00C3FF1220FFF7C0FF8120FFF7BDFFCF20D5
:10142C00FFF7BAFFD920FFF7B7FFF120FFF7B4FFA2
:10143C00DB20FFF7B1FF3020FFF7AEFFA420FFF752
:10144C00ABFFA620FFF7A8FF8D20FFF7A5FF142008
:10145C00FFF7A2FFAF20FFF79FFF6420FFF703FE0B
:10146C0008BD70B506460D46FFF75AFF7820FFF70A
:10147C0070FFFFF782FF4020FFF76BFFFFF77DFF48
:10148C00002406E0305DFFF764FFFFF776FF0134C0
:10149C00E4B2AC42F6D3FFF751FF70BD38B5044649
:1014AC000D46FFF73DFF7820FFF753FFFFF765FF71
:1014BC000020FFF74EFFFFF760FF04F00F00FFF76F
:1014CC0048FFFFF75AFF200940F01000FFF741FFDB
:1014DC00FFF753FF45F0B000FFF73BFFFFF74DFF61
:1014EC00FFF72CFF38BD000010B500240BE021469F
:1014FC000020FFF7D3FF8021044800EBC410FFF756
:10150C00B0FF0134E4B2072CF1D910BD8C010020DE
:10151C0010B500240BE00A4A02EBC4120021D1548E
:10152C000133DBB213F0800FF5D00134E4B2072C99
:10153C0005D821460020FFF7B1FF0023F2E710BDCC
:10154C008C01002010F0800F1BD1072919D8002323
:10155C00052B15D830B5A2F1200C00EB030E0CEBCB
:10156C004C0C084C04EB4C0C1CF80350064C04EBD4
:10157C00C11C0CF80E500133DBB2052BEBD930BD7E
:10158C0070477047D82300088C01002070B50446C2
:10159C000E46154606E031462046FFF7D3FF0634CB
:1015AC00E4B201352A78002AF5D170BD024601203B
:1015BC0002E002FB00F019464B1E0029F9D17047DE
:1015CC002DE9F8438146884617461E4600241BE049
:1015DC0004EB440509EB4505EDB2311B01390A203A
:1015EC00FFF7E4FFB7FBF0F0094AA2FB0032D20888
:1015FC0002EB8202A0EB42023032D2B241462846C4
:10160C00FFF7A0FF0134E4B2B442E1D3BDE8F883A4
:10161C00CDCCCCCC10F0800F18D13F2916D84FEA86
:10162C00D10C01F0070142B101228A40084B03EBB7
:10163C00CC13195C11431954704701228A40044B96
:10164C0003EBCC13195C21EA02011954704700BF5B
:10165C008C0100202DE9F04F83B004460E469146D4
:10166C000193A2EB00085F1AB8F1000FB8BFC8F1E4
:10167C000008002FB8BF7F4282421DD94FF0010AEB
:10168C00019BB3421BD94FF0010BA8EB07050122BC
:10169C0031462046FFF7BEFF4C4513D06B007A4213
:1016AC00B2EB450F02DAED1B5444E4B29845EEDD83
:1016BC0045445E44F6B2EAE74FF0FF3AE0E74FF0FC
:1016CC00FF3BE2E7019B9E42E8D103B0BDE8F08FFF
:1016DC0070B588B001210420FFF7CEF801214FF43A
:1016EC000060FFF7C9F84FF48063ADF81C30182385
:1016FC008DF81F3003238DF81E3007A91648FFF70D
:10170C0054F81323ADF8143048F69F43ADF810305D
:10171C000026ADF81660ADF81260104C04A92046F6
:10172C00FFF7E2F96023ADF800300125ADF8025067
:10173C000F23ADF80630ADF8086069462046FFF778
:10174C001DFA29462046FFF76CFA29462046FFF77A
:10175C0076FA08B070BD00BF00080140002C0140B3
:10176C0010B540F6FF7303800023438000244460CF
:10177C008460C46001E001339BB2934216D24FEAFD
:10178C00430E31F813C01FFA8CFC0488A44502D216
:10179C0031F81340048031F80EC01FFA8CFC4488D9
:1017AC00A445E8D931F80E404480E4E710BD0000B0
:1017BC002DE9F04F83B081460F469046934209D0F5
:1017CC00981AFEF777FD01462948FEF77BFE824604
:1017DC00002404E04FF07E5AFAE70134A4B2BC4274
:1017EC0042D20094E60196FBF7F65FFA86FB019471
:1017FC0039F8140080B2A0EB0800FEF75BFD5146EF
:10180C00FEF7ACFDFEF7FAFEC5B2C5F13F05EDB231
:10181C0016F0800FE1D13F2DDFD801222946584622
:10182C00FFF7F8FE002CD8D0009B5E1EF60196FB4D
:10183C00F7F6F6B2019B03F10043013B39F81300B4
:10184C0080B2A0EB0800FEF735FD5146FEF786FD91
:10185C00FEF7D4FEC1B2C1F13F012B465A46C9B2C4
:10186C003046FFF7F7FEB8E703B0BDE8F08F00BFD6
:10187C0000007C4230B587B00446028840F6E4454F
:10188C0005FB02F2120B0C4901A800F05BF901AA4E
:10189C0000210846FFF77AFE628805FB02F2120B64
:1018AC00064901A800F04EF901AA01210020FFF71A
:1018BC006DFE07B030BD00BF1426000820260008BE
:1018CC0000B583B001210820FEF7D6FF2023ADF828
:1018DC00043048238DF8073003238DF8063001A916
:1018EC000248FEF762FF03B05DF804FB000C0140F8
:1018FC0008B520210348FEF7B1FFB0FA80F040098B
:10190C0008BD00BF000C014008B5FFF7F9FAFFF75E
:10191C00DFFEFFF757FDFFF7B1FBFFF7D1FFFFF736
:10192C0017FB4FF47A70FFF757FBFFF717FCFFF725
:10193C00EFFDFFF7D9FD08BD30B58BB0FFF7D8FF31
:10194C00F8B94A4B1B78002B34D102214848FEF7DA
:10195C0025FF0028F9D04648FEF71DFF0446454BED
:10196C001868002874DC44490A78531CDBB20B70ED
:10197C00424921F812407E2B6DD8FFF7CBFB0BB000
:10198C0030BD1E20FFF76FFBFFF7B2FF0028D8D049
:10199C003B4A1378B3FA83F35B0913703BB14720CE
:1019AC00FFF734FCFFF7A4FF0028FBD1C9E741F691
:1019BC001F40F5E72D4B00221A7080222F4901A8F9
:1019CC00FFF7CEFE2E4B1B78012B3BD0FFF752FCC2
:1019DC000546FFF759FC0446FFF79AFD01A8FFF7EF
:1019EC0049FF2A46274905A800F0ACF805AA0221B0
:1019FC000020FFF7CBFD2246234905A800F0A2F8F2
:101A0C0005AA03210020FFF7C1FD0423194A12681F
:101A1C0019460020FFF7D4FD194B1B78B3B11B4AB4
:101A2C0005210020FFF7B2FD40F6FF730022802154
:101A3C001248FFF7BDFEFFF757FD01210C48FEF7DA
:101A4C0023FE9AE7FFF70AFC0546C2E7104AE7E7D0
:101A5C00FFF7F4FA87E70021074B1970034B0122BB
:101A6C001A700348FEF710FE87E700BF8C050020B4
:101A7C0000240140840100208D05002084000020FA
:101A8C0002000020382600084426000830260008F2
:101A9C002C26000808B5FFF737FFFFF74DFFFCE7D2
:101AAC00002103E00B4B5B58435004310A480B4BAD
:101ABC0042189A42F6D30A4A02E0002342F8043B49
:101ACC00084B9A42F9D3FFF71BFA00F017F8FFF70F
:101ADC00E1FF7047A42600080000002068000020E9
:101AEC0068000020A4050020FEE77047FEE7FEE733
:101AFC00FEE7FEE7704770477047704770B50026E9
:101B0C000C4D0D4C641BA410A64209D100F0B4FD81
:101B1C0000260A4D0A4C641BA410A64205D170BDC8
:101B2C0055F8043B98470136EEE755F8043B9847C7
:101B3C000136F2E79C2600089C2600089C2600082B
:101B4C00A02600080EB46FF0004100B59CB01DAB90
:101B5C0002900690079104910848094953F8042B08
:101B6C000591006802A9019300F068F80022029B1D
:101B7C001A701CB05DF804EB03B070470400002031
:101B8C000802FFFF2DE9F0478E6882469E420C4604
:101B9C0090461F4638D88A8912F4906F32D0256847
:101BAC0009690133A5EB010965694B4405EB450552
:101BBC0005EBD5756D109D4238BF1D46530531D5CB
:101BCC00294600F04FFB064650B90C234FF0FF306E
:101BDC00CAF80030A38943F04003A381BDE8F08725
:101BEC004A46216900F0CEFAA38923F4906343F0AE
:101BFC008003A38126614E4426603E466561A5EBB9
:101C0C000905A560BE4200D93E46324641462068D1
:101C1C0000F0C6FAA36800209B1BA3602368334422
:101C2C002360DBE72A4600F077FB06460028E1D16B
:101C3C005046216900F0CEFAC7E700002DE9F04FBD
:101C4C0098468B8907461B060D4614469DB00ED54B
:101C5C000B6963B9402100F005FB2860286120B9AD
:101C6C000C233B604FF0FF30D1E040236B6100232D
:101C7C00099320238DF8293030234FF00109CDF83A
:101C8C000C80DFF8A4818DF82A3023469A4613F88D
:101C9C00012B0AB1252AF9D1BAEB040B0BD05B4608
:101CAC00224629463846FFF76DFF013000F0AA8026
:101CBC00099A5A4409929AF80030002B00F0A2803D
:101CCC0000234FF0FF32CDE905230AF1010A0493FA
:101CDC0007938DF853301A935446052214F8011BC0
:101CEC00514800F041FA049AD8B9D00644BF2023D9
:101CFC008DF85330110744BF2B238DF853309AF8CD
:101D0C0000302A2B15D0544600204FF00A0C079AAD
:101D1C00214611F8013B303B092B4ED9B0B107924B
:101D2C0014E0A0EB080309FA03F31343A24604934F
:101D3C00D2E7039B191D1B680391002BBBBF5B42B1
:101D4C0042F0020207930793B8BF049223782E2B1C
:101D5C000CD163782A2B35D1039B02341A1D1B68D6
:101D6C000392002BB8BF4FF0FF330593DFF8BCA0F4
:101D7C0003225046217800F0F7F940B14023A0EB44
:101D8C000A0003FA00F0049B01340343049314F893
:101D9C00011B062226488DF8281000F0E5F90028D2
:101DAC0038D0244B1BBB039B073323F007030833AA
:101DBC000393099B3344099367E70C4601200CFB02
:101DCC000232A5E700234FF00A0C194601340593A3
:101DDC00204610F8012B303A092A03D9002BC5D024
:101DEC000591C3E7044601230CFB0121F0E703AB8B
:101DFC0000932A463846104B04A9AFF30080421CCE
:101E0C000646D6D1AB895B063FF52CAF09981DB0C1
:101E1C00BDE8F08F03AB00932A463846064B04A965
:101E2C0000F07CF8EBE700BF5026000856260008AF
:101E3C005A26000800000000911B00082DE9F0470D
:101E4C00164699468A680B6907469342B8BF1346F3
:101E5C00336091F843200C46DDF820800AB1013341
:101E6C0033602368990642BF3368023333602568B8
:101E7C0015F0060506D104F1190AE36832689B1ABD
:101E8C00AB4228DC94F84320131E226818BF0123B0
:101E9C0092062DD44946384604F14302C04701301E
:101EAC0020D02368E56803F00603042B18BF002537
:101EBC0032684FF00006A36808BFAD1A226908BF4C
:101ECC0025EAE5759342C4BF9B1AED181A34B54246
:101EDC001AD1002008E00123524649463846C04733
:101EEC00013003D14FF0FF30BDE8F0870135C4E776
:101EFC003020E11881F843005A1C94F84510224414
:101F0C00023382F84310C5E701232246494638467E
:101F1C00C0470130E6D00136D9E700002DE9FF4774
:101F2C000F7E9146782F80460C469A460C9D01F107
:101F3C00430207D8622F0AD8002F00F0D980582FFF
:101F4C0000F0A48004F1420584F842703AE0A7F155
:101F5C006303152BF6D801A151F823F0C11F00081B
:101F6C00D51F0008511F0008511F0008511F000801
:101F7C00511F0008D51F0008511F0008511F0008F1
:101F8C00511F0008511F0008E3200008052000081D
:101F9C00C5200008511F0008511F0008052100082A
:101FAC00511F000805200008511F0008511F000890
:101FBC00CD2000082B681A1D1B682A6004F142050D
:101FCC0084F842300123A4E020682968060601F158
:101FDC0004030AD50E682B60002E03DA2D237642FB
:101FEC0084F843300A235E4819E00E6810F0400F65
:101FFC002B6018BF36B2EFE72B682068191D2960DB
:10200C00010601D51E6802E04606FBD51E886F2F1F
:10201C000CBF08230A235248002184F8431065683A
:10202C00002DA8BF2168A560A4BF21F00401216088
:10203C000EB9002D4DD01546B6FBF3F103FB11671D
:10204C00C75D05F8017D3746BB420E46F4D9082B17
:10205C000BD12368DE0708D5236961689942DEBF7E
:10206C00302305F8013C05F1FF35521B22614B462C
:10207C0021464046CDF800A003AAFFF7DFFE013051
:10208C004CD14FF0FF3004B0BDE8F087344881F8F4
:10209C0045702968236851F8046B29601D0614D516
:1020AC00DF0744BF43F0200323601EB9236823F0ED
:1020BC00200323601023AFE7236843F02003236041
:1020CC007823284884F84530E3E7590648BFB6B270
:1020DC00E6E71546BBE72B682668181D6169286082
:1020EC0035061B6801D5196002E07006FBD5198016
:1020FC00002315462361BAE72B6800211A1D2A60BC
:10210C001D686268284600F02FF808B1401B60601B
:10211C0063682361002384F84330A8E72A464946C4
:10212C0040462369D0470130ABD023689B0713D4BA
:10213C00E068039B9842B8BF1846A4E701233246D7
:10214C0049464046D04701309BD00135E36803999E
:10215C005B1AAB42F2DCEBE7002504F11906F5E75C
:10216C006126000872260008034610B5C9B2024465
:10217C009342184601D1002003E0047801338C42CD
:10218C00F6D110BD0A44914200F1FF3300D17047E3
:10219C0010B511F8014B914203F8014FF9D110BD64
:1021AC00884210B501EB020402D98442234607D8B9
:1021BC00431EA14208D011F8012B03F8012FF8E7B8
:1021CC00014602448A4200D110BD13F8014D02F8B9
:1021DC00014DF7E738B50546002940D051F8043CCD
:1021EC000C1F002BB8BFE41800F0CCF81C4A136885
:1021FC0033B9636014602846BDE8384000F0C8B8B5
:10220C00A34208D9206821188B4201BF19685B686A
:10221C0009182160EDE71A465B680BB1A342FAD9A5
:10222C0011685018A0420BD1206801445018834209
:10223C001160E0D118685B68014411605360DAE703
:10224C0002D90C232B60D6E7206821188B4201BFE2
:10225C0019685B680918216063605460CBE738BD6E
:10226C0090050020F8B5CD1C25F0030508350C2D84
:10227C0038BF0C25002D064601DBA94203D90C23DF
:10228C0033600020F8BD00F07DF821490A6814463F
:10229C009CB9204F3B6823B92146304600F062F8C8
:1022AC0038602946304600F05DF8431C23D10C23DE
:1022BC003046336000F06CF8E3E723685B1B17D4FF
:1022CC000B2B03D923601C44256004E06368A242F5
:1022DC000CBF0B605360304600F05AF804F10B0051
:1022EC00231D20F00700C21ACCD01B1AA350C9E73B
:1022FC0022466468CCE7C41C24F00304A042E3D05B
:10230C00211A304600F02EF80130DDD1CFE700BFA6
:10231C009005002094050020F8B5074614460E469B
:10232C0021B91146BDE8F840FFF79CBF22B9FFF771
:10233C0051FF25462846F8BD00F030F8A0420FD2D8
:10234C0021463846FFF78EFF05460028F2D031466D
:10235C002246FFF717FF31463846FFF73BFFE9E708
:10236C003546E7E738B50023054D044608462B6093
:10237C0000F01EF8431C02D12B6803B1236038BD5A
:10238C0098050020014800F011B800BF9C05002002
:10239C00014800F00CB800BF9C05002051F8043C2B
:1023AC00181F002BBCBF0B58C018704770477047E4
:1023BC00044A05491368002B08BF0B4618441060EB
:1023CC0018467047A0050020A4050020000000005E
:1023DC0000000000002F00000000070007000014A0
:1023EC007F147F1400242A7F2A12002313086462AE
:1023FC0000364955225000000007000000001C2246
:10240C004100000041221C000014083E0814000882
:10241C00083E0808000000A0600000080808080832
:10242C00000060600000002010080402003E5149CA
:10243C00453E0000427F4000004261514946002168
:10244C0041454B31001814127F1000274545453982
:10245C00003C4A49493000017109050300364949DD
:10246C00493600064949291E000036360000000096
:10247C0056360000000814224100001414141414E1
:10248C00000041221408000201510906003E495582
:10249C00592E007C1211127C007F49494936003EAE
:1024AC0041414122007F4141221C007F4949494161
:1024BC00007F09090901003E4149497A007F08085B
:1024CC00087F0000417F4100002040413F01007F18
:1024DC0008142241007F40404040007F020C027FE4
:1024EC00007F0408107F003E4141413E007F0909F6
:1024FC000906003E4151215E007F0919294600461C
:10250C00494949310001017F0101003F4040403FF2
:10251C00001F2040201F003F4038403F006314083C
:10252C001463000708700807006151494543000017
:10253C007F414100000204081020000041417F004F
:10254C00000402010204004040404040000001022F
:10255C000400002054545478007F48444438003818
:10256C004444442000384444487F003854545418A0
:10257C0000087E0901020018A4A4A47C007F0804B2
:10258C0004780000447D4000004080847D00007F82
:10259C00102844000000417F4000007C041804789F
:1025AC00007C0804047800384444443800FC24249B
:1025BC0024180018242418FC007C08040408004883
:1025CC005454542000043F444020003C4040207CA4
:1025DC00001C2040201C003C4030403C0044281093
:1025EC002844001CA0A0A07C004464544C4400006F
:1025FC00087F41000000007F00000000417F0800C0
:10260C0000080408100800004D696E3A2534646D0A
:10261C00560000004D61783A2534646D5600000078
:10262C004C6F77004869676800000000667265713E
:10263C003A25346C75687A00647574793A25346C73
:10264C0075252500232D302B2000686C4C00656609
:10265C0067454647003031323334353637383941E7
:10266C0042434445460030313233343536373839FD
:10267C006162636465660000F8B500BFF8BC08BC15
:10268C009E467047F8B500BFF8BC08BC9E46704724
:04269C003101000800
:0426A0000D01000820
:1026A40047000100080000200000000000000000B6
:1026B4000000000000000000000000000000000016
:1026C4000000000000000000000000000000000006
:1026D40000000000000000000000000000000000F6
:1026E40000000000000000000000000000000000E6
:1026F40000000000000000000000000000000000D6
:082704000000000000000000CD
:0400000508001AAD28
:00000001FF
